:020000040800F2
:1000000098130020D1000008591300084712000877
:1000100000000000000000000000000000000000E0
:100020000000000000000000000000005D13000858
:1000300000000000000000005B1300085F130008D0
:10004000E3000008E3000008E3000008E300000804
:10005000E3000008E3000008E3000008E3000008F4
:10006000E3000008E3000008E3000008E3000008E4
:10007000F5020008E3000008E3000008E3000008C0
:10008000E3000008E300000800000000E3000008AF
:10009000E3000008E3000008E3000008E3000008B4
:1000A000E3000008E3000008E3000008E3000008A4
:1000B000E300000800000000E30000080348854654
:1000C00000F0D6F800480047811700089813002078
:1000D0000448804704480047FEE7FEE7FEE7FEE7E6
:1000E000FEE7FEE7B7130008BD00000830B50B4679
:1000F000014600202022012409E00D46D5409D4202
:1001000005D31D469540491B254695404019154687
:10011000521E002DF1DC30BDF0B51FB406460020A4
:1001200082B005464024019100901BE001992246CF
:100130000F46304600F020F8049A059B801A99413A
:1001400010D310461946224600F040F8361A8F4167
:100150000197224601200021009F00F037F838184F
:100160004D4100902046641E0028DFDC019B009872
:100170002946324607B0F0BD10B5202A04DB0846F8
:10018000203AD040002110BD0B46D340D04020245F
:10019000A21A91400843194610BDD2B201E0027084
:1001A000401C491EFBD270470022F6E710B51346EB
:1001B0000A4604461946FFF7F0FF204610BD10B569
:1001C00000229623114600F019F810BD10B5202A20
:1001D00004DB0146203A9140002010BD91402023CD
:1001E0009C1A0346E3401943904010BD002904DAED
:1001F000401C490001D140084000704770B4002401
:10020000050C05D11024000402D1002921D01124AD
:10021000050E01D100020834050F01D10001241D93
:10022000850F01D18000A41C002801DB4000641C64
:10023000002908D020252E1B0D46F540A14000D0F6
:1002400001212943084301061B1B000ADB1D02D5BF
:10025000002070BC7047DB05181880180029F8DAF8
:10026000401C4900F5D170BC4008400070470000B8
:10027000064C0125064E05E0E36807CC2B430C3CF9
:1002800098471034B442F7D3FFF71CFF101800084A
:100290003018000870B58D180478401CA207920F22
:1002A00001D10278401C231106D10378401C03E0E1
:1002B00006780E70401C491C521EF9D1002B15D037
:1002C00002780C268A1A3440401C0C2C03D0A4015E
:1002D000121B9B1C08E004782402121B401CF8E748
:1002E00014780C70491C521C5B1EF9D5A942D3D35B
:1002F000002070BD10B5024800F00AF910BD0000E2
:100300009C020020F8B50446002000902068816817
:100310008907890F012905D10168C9072CD1C16856
:10032000090429D48168154A1026114001250029A5
:1003300015D1816829438160124811490068FFF78F
:10034000D5FE00E0401E00900028FBD100F022FB0B
:1003500007460CE000F01EFBC01B022807D9A06B6B
:100360003043A063E06B2843E0630120F8BD2068C0
:100370000068C043C007EDD10020F8BD1700008021
:1003800040420F0098020020F8B5002504462034B2
:100390000095227D012A3BD00122227503689E68C8
:1003A000760776D43F4F4E68BE4254D09E6A0F788F
:1003B000BA4016439E620123C26A1B079A421FD0AD
:1003C000012A1DD0022A1BD0032A19D0042A17D0D3
:1003D000052A15D0062A13D0072A11D002688B6887
:1003E00056697607760FB3420AD05369DB08DB0003
:1003F0005361006842690B7A5B075B0F1A434261E5
:100400000868102806D0112804D0122802D045E030
:100410000220F8BD244A9368102809D011280AD078
:1004200001200006034393600868102806D035E0D9
:100430000120C005F6E701208005F3E71C481B49B1
:100440000068FFF753FE0A21484300E0401E009079
:100450000028FBD122E0986A0E78B240904398625F
:100460000868102803D0112801D0122816D10E498F
:100470008A68102807D0112808D00120000682437E
:100480008A600BE005E00120C005F8E70120800547
:10049000F5E7816B2022114381630125002020753F
:1004A0002846F8BD011000000027014040420F001F
:1004B0009802002070B50546006800680E4C0F4E8B
:1004C000400708D5284600F020F801462068820041
:1004D000B150401C20602868006800070BD5002040
:1004E00020600748074A408BB1685043FFF7FEFD84
:1004F000FFF765FEA06070BD00000020DC02002058
:10050000A0F70000E40C000070470068006C704722
:1005100070B5044600680168490702D5416849077B
:1005200005D40168090730D5416809072DD5A16BAD
:10053000C90604D4A16B012252021143A163C16810
:100540000C250905890F00291AD1A17E002917D190
:100550000168090714D581684A070121002A08DBD0
:100560004268AA434260A06B0A0290430843A0631A
:1005700006E0A06B20221043A063E06B0843E06319
:100580002046FFF797FF206805602068016809068C
:100590000DD5406800060AD5A06B01210904084367
:1005A000A063204600F0D8F8216880200860206809
:1005B0000168C90613D54168C90610D5A16A10257E
:1005C000012902D0C168C90707D0E16B022211439B
:1005D000E16305602046FFF797FF2068056070BD66
:1005E000F8B500260446002805D0A06B2546203526
:1005F000002802D007E00120F8BD0020E063287544
:10060000204600F0ABF8A06B1022C006002870DB7B
:100610002068816849076CD4A16B130199430223B8
:100620001943A16381688907890F012905D10168F0
:10063000C9070FD1C16809040CD4C16818239943B4
:10064000A3681943C160206801696368890089084B
:10065000194301612068C1683D4B1940C160207E8B
:10066000617E8003C9030843A17E4B031843A36A3C
:10067000012B02D001231B0300E000231843E36891
:1006800018432369022B09D0002318432B79E57EF8
:100690005B0018430123012D02D00AE00423F4E794
:1006A000002927D0A16B20252943A163E16B1943C1
:1006B000E163E1690D46FF3DC23D02D0256A294351
:1006C00008432168CD680543CD600125E16A2D0707
:1006D000A94213D0012911D002290FD003290DD02E
:1006E00004290BD0052909D0062907D0072905D0F0
:1006F00010E028E0012109040843DAE721684D6988
:10070000ED08ED004D6121684D69A78D7F077F0FD2
:100710003D434D612168C9680E4D2940814207D192
:100720000020E063A06B80088000401CA06308E00C
:10073000A06B022188431043A063E06B1843E06381
:1007400001263046F8BDA06B1043A063F8E7000017
:100750001902FEFFE7FF3F837047000010B586B027
:10076000044614216846FFF71FFD1449206888429B
:1007700021D11348826941150A43826182690A4086
:100780000592426909020A434261406908400590A6
:100790000220009003200190002002900920694669
:1007A000C00600F04DF8002211460C2000F052F96E
:1007B0000C2000F043F906B010BD000000240140F9
:1007C0000010024070B5044621680020896849077E
:1007D00032D425462035297D01292DD001212975C6
:1007E000617E012904D02046FFF78CFD002818D136
:1007F000A16B124A1140FF2201321143A163002173
:10080000E163297522681C21116063690422082BA9
:1008100008D023685D680D435D6021688B681343D1
:100820008B6070BD21684B6893434B6021684B68B7
:1008300018252B434B60F0E7022070BDFEF1FFFF4F
:10084000F8B500238DE001249C40A44622407DD0D1
:100850004C68022C01D0122C0CD1DC08A400271803
:100860003C6A5D07ED0E0F26AE40B4430E69AE4004
:1008700026433E6205685E000324B4400F79A54319
:10088000BF07BF0FB7402F4307604D68012D05D04C
:10089000022D03D0112D01D0122D0ED18568CF6805
:1008A000A543B7402F43876047686546AF430D793E
:1008B000ED06ED0F9D403D434560C568A5438C683E
:1008C000B4402C43C4604C68E40049D5284CA56969
:1008D00001263543A561A4699D0834400094254C48
:1008E000AD002F19BC689D072E0F0F25B540AC43F6
:1008F0000925ED06A84201D100250FE01E4DA842B2
:1009000001D101250AE01D4DA84201D1022505E0D3
:100910001B4DA84201D1032500E00525B540254324
:10092000BD60184C25684E689543F60300D5154305
:10093000256065684E689543B60300D5154365602C
:10094000A5684E689543F60202D500E008E015431D
:10095000A560E5684E689543B60200D51543E5608D
:100960005B1C0A681446DC4000D06CE7F8BD000050
:100970000010024000000140000400480008004848
:10098000000C004800040140002A01D0816170473A
:100990008162704701488068704700008C02002027
:1009A0000248816802788918816070478C020020B3
:1009B00010B506480168102211430160002000F0C4
:1009C00007F800F027F8002010BD000000200240CA
:1009D00070B504460D4D7D202978C000FFF786FBD9
:1009E00001460B480068FFF781FB00F0CFFA0028B2
:1009F00009D1042C07D200222146401E00F02AF81B
:100A000000206C6070BD012070BD00008C020020D1
:100A10009802002008B508488169012211438161CC
:100A2000816911400091C26901040A43C261C06931
:100A30000840009008BD000000100240002805DBBF
:100A4000C106C90E012088400149086070470000B6
:100A500000E100E010B500F04FFE10BDF8B50F4604
:100A6000060059D03A4D2868C007C00FB84209D2D5
:100A7000286840084000384328602868C007C00F35
:100A8000B84249D13068334C81070CD5400704D5B2
:100A9000606807210902084360606068F0218843AC
:100AA000B168084360603078C00726D070680128BC
:100AB0000ED0216802280ED0890700292CDA61683F
:100AC0008908890001436160FFF764FF00900DE031
:100AD00021688903F1E78901EFE7FFF75BFF0099E0
:100AE000411A1D48814201D90320F8BD60680C21DC
:100AF0000840716889008842EFD12868C007C00F9C
:100B0000B8420BD92868400840003843286028685C
:100B1000C007C00FB84201D00120F8BD30784007AF
:100B200006D56068072109028843F16808436060C0
:100B300000F028F86168094A0906090F515CC840AD
:100B4000074908600020FFF743FF0020F8BD0000C0
:100B5000002002400010024088130000F81700082F
:100B6000980200200448054900684968044A49057C
:100B7000490F515CC84070479802002000100240A5
:100B80000818000810B514A30FCB88B06C460FC42A
:100B900015A30FCB0FC4184A51680C200B46034015
:100BA0001648042B16D0082B14D18B021B0F6C4651
:100BB000E45CD26A04AB1207120F9A5CC90305D534
:100BC00000231946FFF7A8FA214601E020460C4908
:100BD00000F07AFD08B010BD0203040506070809FD
:100BE0000A0B0C0D0E0F1010010203040506070876
:100BF000090A0B0C0D0E0F100010024000127A00B3
:100C000000093D00FEB5040070D02078DC4DC0071F
:100C10004AD068680007800F012807D0686800077D
:100C2000800F022809D16868C00306D528688003B0
:100C30003AD560680028E7D036E06168012914D011
:100C400001208004002901D0052914D02A6801213F
:100C500009048A432A602968814329606068002862
:100C600016D0FFF797FE06460EE02868012109041A
:100C700008432860F2E7296801432960F5E7FFF798
:100C800089FE801B64286ED828688003F7D50BE0A6
:100C9000FFF780FE064604E0FFF77CFE801B642819
:100CA000F1D828688003F7D420780126800700282F
:100CB0003CDA68680007800F07D068680007800F7B
:100CC000022809D16868C00306D42868800716D5B1
:100CD000E06801280AD112E0E0680028286816D0F0
:100CE00030432860FFF756FE074605E043E1FFF773
:100CF00051FEC01B0228C6D828688007F7D528688F
:100D0000F82188432169C900084328600EE04008A3
:100D100040002860FFF73EFE074604E0FFF73AFE7A
:100D2000C01B0228AFD828688007F7D420780007B6
:100D300022D5E0690028686A0ED030436862FFF768
:100D400029FE074604E0FFF725FEC01B02289AD8BB
:100D5000686A8007F7D50FE0400840006862FFF737
:100D600019FE074605E09DE0FFF714FEC01B0228B0
:100D700089D8686A8007F7D42078042740070028BC
:100D800060DA00200190E869C00008D4E969B8067B
:100D90000143E961E969014001200091019079482E
:100DA0000168C90511D40168821511430160FFF77C
:100DB000F1FD009005E0FFF7EDFD0099401A642871
:100DC00070D870480068C005F5D5A06801280AD021
:100DD000002801D0052810D0286A40084000286269
:100DE000286AB84301E0286A30432862A0680028D6
:100DF00012D0FFF7CFFD00900AE0286A384328623E
:100E0000F1E7FFF7C7FD0099411A5F48814249D8D1
:100E1000286A8007F5D50DE0FFF7BCFD009006E0DD
:100E2000FFF7B8FD0099411A574881423AD8286A1D
:100E30008007F5D40198002804D0E9690120000753
:100E40008143E9612078C00635D5606901280CD05E
:100E5000401D686B23D038436863686B40084000CE
:100E60006863FFF797FD064622E0686B38436863C6
:100E7000686B30436863FFF78DFD064604E0FFF7BB
:100E800089FD801B02285BD8686B8007F7D5686BEB
:100E9000F8218843A169C900084368630BE0B8439F
:100EA0006863F4E74CE0FFF775FD801B022847D824
:100EB000686B8007F7D4206A00285ED0696809074C
:100EC000890F022942D0012636060228286805D05B
:100ED000B0432860FFF75EFD044633E0B04328606E
:100EE000FFF758FD074604E0FFF754FDC01B02283A
:100EF00026D828688001F7D4E86AE16A0009000171
:100F00000843E862616AA06A084369683D221204E6
:100F1000914308436860286830432860FFF73AFD32
:100F2000044604E0FFF736FD001B022808D82868B5
:100F30008001F7D521E0FFF72DFD001B022801D924
:100F40000320FEBD28688001F5D416E00128F8D002
:100F50006868E96A01221204636A02409A420AD16F
:100F60000907E26A090F914205D10F21890408405F
:100F7000A16A884201D00120FEBD0020FEBD000014
:100F8000001002400070004088130000094910B5AD
:100F9000401E884201D9012010BD074C6061032129
:100FA000081F00F0A9FB0020A0610720206100209D
:100FB00010BD0000FFFFFF0000E000E010B50400DE
:100FC00003D0606F002802D007E0012010BD00218F
:100FD00070200155204600F027F824206067206823
:100FE0000168490849000160204600F07BFA0128A9
:100FF000ECD0606A002802D0204600F0DDF92068BD
:1010000041680922D20291434160206881682A2206
:1010100091438160206801680122114301602046EC
:1010200000F030FA10BD000010B586B0044614215F
:101030006846FFF7B9F81249206888421DD1114867
:10104000C269012149040A43C261C2690A4005928A
:1010500042690A4342614069084005900C200090B3
:1010600002200190002002900320039001200490B0
:1010700009206946C006FFF7E3FB06B010BD00007B
:101080000044004000100240FFB50446806F85B068
:1010900017460E4620286AD1002E0AD0002F08D00D
:1010A000A168C001814207D12069002804D1F0075E
:1010B00002D0012009B0F0BD204660300290007CD3
:1010C000012854D00298012101740020E0672220F9
:1010D000A067FFF75FFC2546403504902F836F83A0
:1010E0000120A1680003FF22814204D12369002B63
:1010F00009D1204A07E0002901D0002203E023693A
:10110000002B00D07F22AA8392B20192814202D1A9
:101110002069002802D03746002600E00027D0B220
:101120000390688B00281CD0089800900022202192
:101130002046049B00F07AFA002801D00320B9E78A
:101140002068002F808C07D00399084038707F1CDE
:10115000688B401E6883E4E7019908403080B61C24
:10116000F6E72020A067029900200874A2E7022079
:10117000A0E70000FF010000FFB50446406F83B008
:1011800017460D4620285CD1002D0AD0002F08D02C
:10119000A168C001814207D12069002804D1E80775
:1011A00002D0012007B0F0BD204660300290007CE4
:1011B000012846D00298012101740020E067212017
:1011C0006067FFF7E7FB264640360190378277825B
:1011D0000120A1680003814202D12069002802D0C9
:1011E0002F46002511E000270FE000228021204635
:1011F00000F01CFA002815D1002F15D0216838788E
:1012000008857F1C708A401E7082708A019B0028AE
:1012100006980090E9D100224021204600F006FA0D
:10122000002808D00320BDE728882168C005C00D2C
:101230000885AD1CE6E7202060670299002008744D
:10124000B0E70220AEE7FEE73EB500211948009165
:1012500001910291416081600124154A046102609C
:10126000C16004224261017641768176FF22C17617
:10127000C232C26102460162203211718462FFF7FC
:10128000AFF92003019007200290009469460948B5
:10129000FFF77AF81020009069460648FFF774F8C7
:1012A0001120009069460348FFF76EF83EBD00002C
:1012B000002401409C020020F0B587B0142168464C
:1012C000FEF772FF15484269012149040A43426151
:1012D00042690A400592426989000A4342614069B5
:1012E000032608400E4F360205900022314638464C
:1012F000FFF74AFB0B480125002401906946009541
:1013000002948002FFF79CFA0294694638460096E0
:1013100001950394FFF794FA07B0F0BD0010024066
:10132000000800480000121010B50A480849016082
:10133000E1214902416000218160C1600161816158
:10134000C1610C22016242614162FFF737FE10BDAC
:1013500000440040E802002070477047704710B515
:10136000FFF71EFB10BD30B591B030216846FEF787
:101370001BFF002412200F94009001200D94039075
:10138000059010200E94049006900520C0040225BC
:101390000A900C94089509940B946846FFF732FC68
:1013A00007200C900E9401210D950F940CA8FFF7C7
:1013B00055FB11B030BD704710B5818CC90707D0FF
:1013C00001684A6801235B049A43836A1A434A60AE
:1013D000818C890707D501684A6801231B049A4359
:1013E000C36A1A434A60818C490707D501684A6875
:1013F00001239B049A43036B1A434A60818C0907BB
:1014000007D501684A680123DB039A43436B1A43FB
:101410004A60818CC90607D50268916801231B03C5
:101420009943836B19439160818C890607D50168C4
:101430008A6801235B039A43C36B1A438A60818CD9
:10144000490612D503685A6801210905046C8A43CC
:1014500022435A60026C8A4207D102685168032312
:101460005B059943436C19435160818C090607D58C
:1014700001684A680123DB04806C9A4302434A6096
:1014800010BD0000F8B500260446C667FFF782FAD3
:10149000054620680068124F000709D501212B4638
:1014A000002249052046009700F0C0F800280DD121
:1014B0002068006840070BD501212B4600228905D2
:1014C0002046009700F0B2F8002801D00320F8BDB4
:1014D00020206067A067603426740020F8BD0000FB
:1014E000FFFFFF0170B5044680682169E269084387
:1014F000616900251143226808431168444B194073
:101500000143116021684868032212039043E26896
:1015100010434860A169206A2268084391680B2340
:101520001B029943014391603A492068884210D1D7
:101530003948006B8007800F11D0012805D00228A0
:1015400005D003280AD1022009E0042007E0082082
:1015500005E03249884201D1002000E0102001223C
:10156000E169D2032E4E914228D1002806D00228EC
:1015700007D0042817D0082844D11AE0FFF7F2FA60
:1015800013E06168274A48088018FEF7AFFD80B273
:1015900001461039B14235D82149491C01400007A4
:1015A000400F084321E0FFF7EDFA616840004A0868
:1015B000EAE76168012248081204E5E7002806D03E
:1015C000022807D0042813D008281BD116E0FFF703
:1015D000C9FA0FE06168144A480811E0FEF786FD79
:1015E00080B201461039B1420CD82168C8600AE0C7
:1015F000FFF7C8FA61684A081018EFE76168480801
:101600008018EBE70125002020666066284670BD43
:10161000F369FFFF00380140001002400044004021
:10162000EFFF00000024F40000127A00FFB581B043
:1016300005460F46044660350A9E38E0701C36D0D9
:10164000FFF7A8F90499401AB04221D8002E1FD004
:101650002068016849072AD5C069C043000526D41F
:1016600001202168C002086220680168FF22A132BF
:101670009143016020688168490849008160202009
:101680006067A067E06700202874032005B0F0BD04
:1016900020680168FF22A1329143016020688168BF
:1016A00049084900816020206067A067EBE7206857
:1016B000C1693846884305D0002103988142BDD0D6
:1016C0000020E3E70121F8E7F8B5040C8BB22646C9
:1016D00082B25E430D0C1046370C58433604801915
:1016E0000021794116466E43370C36048019794142
:1016F00026466E438919F8BD8307FF22DB0E9A4008
:101700008907090E9940002808DB830809489B00D7
:101710001B18186890430843186070470007000FB3
:101720000838830804489B001B18D8699043084375
:10173000D861704700E400E000ED00E002E008C876
:10174000121F08C1002AFAD170477047002001E03B
:1017500001C1121F002AFBD17047000010B5FFF72E
:1017600027F9FFF700FEFFF7A7FDFFF76DFDFFF775
:10177000DBFD0248FFF726F810BD00009C020020A8
:1017800070B5FFF7EBFF7D24E40023460A2213A186
:101790001548FFF7F1FC002805D12346134A1449E8
:1017A0001148FFF771FC0023114C124E591E1A46C6
:1017B0001846255C4D2D03D0491E012B03D006E0B1
:1017C0000521012303E0002901DCB554521C112A34
:1017D00002DA401C6428ECDB002070BD41542B432E
:1017E000494653520D0A0000E8020020EE020000B4
:1017F0003E0A00202C0D0020000000000000000028
:1018000001020304060708090000000001020304A6
:1018100030180008000000209C020000940200081C
:10182000B81900089C020020FC1000004C170008AA
:10183000920001200D41542B524553544F52450DF7
:101840000A0D600943574D4F44453D310E50234A20
:1018500041503D22544E5F323447487A5F3145371C
:10186000334333222C2241574433485543333736D0
:10187000222A40054946535243300950494E473DBC
:1018800022382E02711F000715504D55583D300E5D
:1018900010065354415254681343505C90246661BF
:1018A000726D74657374696E672D63626536612E3F
:1018B0006669726562617365696F2E636F6D222C54
:1018C000383A2007454E443D31304B1017504F53A6
:1018D00054202F496F542E6A736F6E204854545011
:1018E0002F312ECA00071E486F73743A20571021FB
:1018F0000D0A436F6E74656E742D547970653A20CD
:10190000746578742F706C61696E0D0A0D0A34323B
:1019100063210251CE3006434C4F5345101008004E
:101920000080010020950412A30412E70412F810AD
:10193000100A7B0200203D0D0020A1041006050EB8
:101940000020690412CD085005310F0020F4040C6A
:101950001C534C53495A453D3430393617112A151A
:1019600017500D70726F6A656B742D6F63682D0C64
:10197000F4086D65746F64657220C40434343321D7
:101980007404323536210404144D61782101276135
:10199000051A2A654410094C656E6774683A2089F7
:1019A0000406160D0A3939383D1A01846A048D007F
:0819B0000400127A000000009F
:04000005080000BD32
:00000001FF
