:020000040800F2
:10000000E0060020D10000088512000883110008D6
:1000100000000000000000000000000000000000E0
:10002000000000000000000000000000891200082D
:100030000000000000000000871200088B1200087A
:10004000E3000008E3000008E3000008E300000804
:10005000E3000008E3000008E3000008E3000008F4
:10006000E3000008E3000008E3000008E3000008E4
:1000700029020008E3000008E3000008E30000088C
:10008000E3000008E300000800000000E3000008AF
:10009000E3000008E3000008E3000008E3000008B4
:1000A000E3000008E3000008E3000008E3000008A4
:1000B000E300000800000000E30000080348854654
:1000C00000F0A0F8004800477D180008E006002076
:1000D0000448804704480047FEE7FEE7FEE7FEE7E6
:1000E000FEE7FEE7E3120008BD00000830B50B464E
:1000F000014600202022012409E00D46D5409D4202
:1001000005D31D469540491B254695404019154687
:10011000521E002DF1DC30BDF0B51FB406460020A4
:1001200082B005464024019100901BE001992246CF
:100130000F46304600F020F8049A059B801A99413A
:1001400010D310461946224600F04BF8361A8F415C
:100150000197224601200021009F00F042F8381844
:100160004D4100902046641E0028DFDC019B009872
:100170002946324607B0F0BD10B5202A04DB0846F8
:10018000203AD040002110BD0B46D340D04020245F
:10019000A21A91400843194610BD03460B439B0722
:1001A00003D009E008C9121F08C0042AFAD203E0EC
:1001B0000B780370401C491C521EF9D27047D2B212
:1001C00001E00270401C491EFBD270470022F6E796
:1001D00010B513460A4604461946FFF7F0FF2046BD
:1001E00010BD10B5202A04DB0146203A91400020C2
:1001F00010BD914020239C1A0346E34019439040D0
:1002000010BD0000064C0125064E05E0E36807CC52
:100210002B430C3C98471034B442F7D3FFF752FFFE
:10022000A41A0008C41A000810B5024800F0FAF831
:1002300010BD00001C000020F8B50446002000900E
:10024000206881688907890F012905D10168C907DC
:100250002CD1C168090429D48168154A102611409F
:100260000125002915D1816829438160124811496F
:100270000068FFF73BFF00E0401E00900028FBD124
:1002800000F024FB07460CE000F020FBC01B022816
:1002900007D9A06B3043A063E06B2843E0630120E3
:1002A000F8BD20680068C043C007EDD10020F8BD4C
:1002B0001700008040420F0018000020F8B500250C
:1002C000044620340095227D012A3BD0012222756C
:1002D00003689E68760776D43F4F4E68BE4254D07E
:1002E0009E6A0F78BA4016439E620123C26A1B07BA
:1002F0009A421FD0012A1DD0022A1BD0032A19D0EE
:10030000042A17D0052A15D0062A13D0072A11D09F
:1003100002688B6856697607760FB3420AD0536934
:10032000DB08DB005361006842690B7A5B075B0FF7
:100330001A4342610868102806D0112804D01228F8
:1003400002D045E00220F8BD244A9368102809D065
:1003500011280AD001200006034393600868102882
:1003600006D035E00120C005F6E701208005F3E75F
:100370001C481B490068FFF7B9FE0A21484300E00A
:10038000401E00900028FBD122E0986A0E78B2400F
:10039000904398620868102803D0112801D01228D1
:1003A00016D10E498A68102807D0112808D00120DC
:1003B000000682438A600BE005E00120C005F8E7F3
:1003C00001208005F5E7816B20221143816301251F
:1003D000002020752846F8BD0110000000270140CC
:1003E00040420F001800002070B504460068006805
:1003F000094D400709D5204600F011F8014628684C
:100400002B1D82009950401C28602068006800075E
:1004100001D50020286070BD0000002070470068F2
:10042000006C704770B5044600680168490702D542
:100430004168490705D40168090730D541680907B3
:100440002DD5A16BC90604D4A16B01225202114320
:10045000A163C1680C250905890F00291AD1A17E65
:10046000002917D10168090714D581684A070121BD
:10047000002A08DB4268AA434260A06B0A0290434C
:100480000843A06306E0A06B20221043A063E06B4A
:100490000843E0632046FFF7A7FF20680560206857
:1004A000016809060DD5406800060AD5A06B012138
:1004B00009040843A063204600F0D8F82168802092
:1004C000086020680168C90613D54168C90610D5BF
:1004D000A16A1025012902D0C168C90707D0E16BC4
:1004E00002221143E16305602046FFF797FF206871
:1004F000056070BDF8B500260446002805D0A06B45
:1005000025462035002802D007E00120F8BD002054
:10051000E0632875204600F0ABF8A06B1022C006FF
:10052000002870DB2068816849076CD4A16B130137
:10053000994302231943A16381688907890F01291F
:1005400005D10168C9070FD1C16809040CD4C1687D
:1005500018239943A3681943C1602068016963683F
:1005600089008908194301612068C1683D4B194021
:10057000C160207E617E8003C9030843A17E4B03D6
:100580001843A36A012B02D001231B0300E00023C0
:100590001843E36818432369022B09D0002318434A
:1005A0002B79E57E5B0018430123012D02D00AE080
:1005B0000423F4E7002927D0A16B20252943A16358
:1005C000E16B1943E163E1690D46FF3DC23D02D095
:1005D000256A294308432168CD680543CD6001257C
:1005E000E16A2D07A94213D0012911D002290FD0A9
:1005F00003290DD004290BD0052909D0062907D0DD
:10060000072905D010E028E0012109040843DAE7B2
:1006100021684D69ED08ED004D6121684D69A78D98
:100620007F077F0F3D434D612168C9680E4D29400A
:10063000814207D10020E063A06B80088000401C4D
:10064000A06308E0A06B022188431043A063E06B25
:100650001843E06301263046F8BDA06B1043A06349
:10066000F8E700001902FEFFE7FF3F837047000034
:1006700010B586B0044614216846FFF7A7FD14495B
:100680002068884221D11348826941150A4382615A
:1006900082690A400592426909020A43426140693F
:1006A00008400590822000900320019000200290D5
:1006B00009206946C00600F05FF8002211460C20B0
:1006C00000F064F90C2000F055F906B010BD0000F0
:1006D000002401400010024070B50446216800204B
:1006E0008968490732D425462035297D01292DD036
:1006F00001212975617E012904D02046FFF79CFD68
:10070000002818D1A16B124A1140FF220132114377
:10071000A1630021E163297522681C2111606369CE
:100720000422082B08D023685D680D435D602168B2
:100730008B6813438B6070BD21684B6893434B609B
:1007400021684B6818252B434B60F0E7022070BDF1
:10075000FEF1FFFF70B5044600F0B8F80546601CD6
:1007600002D004480078241800F0B0F8401BA042E2
:10077000FAD370BD0C000020F8B500238DE00124F1
:100780009C40A44622407DD04C68022C01D0122C03
:100790000CD1DC08A40027183C6A5D07ED0E0F267B
:1007A000AE40B4430E69AE4026433E6205685E002B
:1007B0000324B4400F79A543BF07BF0FB7402F43B1
:1007C00007604D68012D05D0022D03D0112D01D0F9
:1007D000122D0ED18568CF68A543B7402F4387609F
:1007E00047686546AF430D79ED06ED0F9D403D43EB
:1007F0004560C568A5438C68B4402C43C4604C6810
:10080000E40049D5284CA56901263543A561A469B2
:100810009D0834400094254CAD002F19BC689D07FD
:100820002E0F0F25B540AC430925ED06A84201D196
:1008300000250FE01E4DA84201D101250AE01D4D03
:10084000A84201D1022505E01B4DA84201D1032594
:1008500000E00525B5402543BD60184C25684E686D
:100860009543F60300D51543256065684E689543AA
:10087000B60300D515436560A5684E689543F6023A
:1008800002D500E008E01543A560E5684E68954391
:10089000B60200D51543E5605B1C0A681446DC40CF
:1008A00000D06CE7F8BD00000010024000000140DD
:1008B0000004004800080048000C00480004014003
:1008C000002A01D0816170478162704701488068C9
:1008D000704700000C0000200248816802788918E7
:1008E000816070470C00002010B506480168102296
:1008F00011430160002000F007F800F027F8002005
:1009000010BD00000020024070B504460D4D7D2052
:100910002978C000FFF7EAFB01460B480068FFF7A3
:10092000E5FB00F0CFFA002809D1042C07D2002201
:100930002146401E00F02AF800206C6070BD0120A6
:1009400070BD00000C0000201800002008B5084809
:100950008169012211438161816911400091C2695D
:1009600001040A43C261C0690840009008BD00004C
:1009700000100240002805DBC106C90E0120884096
:10098000014908607047000000E100E010B500F088
:100990005DFE10BDF8B50F46060059D03A4D2868E7
:1009A000C007C00FB84209D2286840084000384349
:1009B00028602868C007C00FB84249D13068334C5E
:1009C00081070CD5400704D5606807210902084358
:1009D00060606068F0218843B168084360603078E7
:1009E000C00726D0706801280ED0216802280ED0DA
:1009F000890700292CDA6168890889000143616050
:100A0000FFF764FF00900DE021688903F1E7890199
:100A1000EFE7FFF75BFF0099411A1D48814201D9BA
:100A20000320F8BD60680C21084071688900884285
:100A3000EFD12868C007C00FB8420BD9286840081A
:100A40004000384328602868C007C00FB84201D072
:100A50000120F8BD3078400706D5606807210902FB
:100A60008843F1680843606000F028F86168094A2B
:100A70000906090F515CC840074908600020FFF7CC
:100A800043FF0020F8BD000000200240001002409B
:100A900088130000C0190008180000200448054908
:100AA00000684968044A4905490F515CC8407047CD
:100AB0001800002000100240D019000810B514A33F
:100AC0000FCB88B06C460FC415A30FCB0FC4184AC8
:100AD00051680C200B4603401648042B16D0082BF7
:100AE00014D18B021B0F6C46E45CD26A04AB120774
:100AF000120F9A5CC90305D500231946FFF70CFBBA
:100B0000214601E020460C4900F088FD08B010BDE8
:100B100002030405060708090A0B0C0D0E0F10103E
:100B20000102030405060708090A0B0C0D0E0F103D
:100B30000010024000127A0000093D00FEB50400DA
:100B400070D02078DC4DC0074AD068680007800F5D
:100B5000012807D068680007800F022809D168685B
:100B6000C00306D5286880033AD560680028E7D01E
:100B700036E06168012914D001208004002901D0E9
:100B8000052914D02A68012109048A432A602968AA
:100B9000814329606068002816D0FFF797FE06465B
:100BA0000EE028680121090408432860F2E729685B
:100BB00001432960F5E7FFF789FE801B64286ED8A2
:100BC00028688003F7D50BE0FFF780FE064604E0B7
:100BD000FFF77CFE801B6428F1D828688003F7D4D7
:100BE00020780126800700283CDA68680007800F1B
:100BF00007D068680007800F022809D16868C00321
:100C000006D42868800716D5E06801280AD112E0CA
:100C1000E0680028286816D030432860FFF756FEA9
:100C2000074605E043E1FFF751FEC01B0228C6D886
:100C300028688007F7D52868F82188432169C9000A
:100C4000084328600EE0400840002860FFF73EFEA1
:100C5000074604E0FFF73AFEC01B0228AFD8286819
:100C60008007F7D42078000722D5E0690028686A59
:100C70000ED030436862FFF729FE074604E0FFF715
:100C800025FEC01B02289AD8686A8007F7D50FE0B6
:100C9000400840006862FFF719FE074605E09DE046
:100CA000FFF714FEC01B022889D8686A8007F7D4B2
:100CB000207804274007002860DA00200190E869C6
:100CC000C00008D4E969B8060143E961E969014057
:100CD00001200091019079480168C90511D401688B
:100CE000821511430160FFF7F1FD009005E0FFF769
:100CF000EDFD0099401A642870D870480068C0055E
:100D0000F5D5A06801280AD0002801D0052810D008
:100D1000286A400840002862286AB84301E0286A2F
:100D200030432862A068002812D0FFF7CFFD009062
:100D30000AE0286A38432862F1E7FFF7C7FD009907
:100D4000411A5F48814249D8286A8007F5D50DE0ED
:100D5000FFF7BCFD009006E0FFF7B8FD0099411ACF
:100D6000574881423AD8286A8007F5D4019800286C
:100D700004D0E969012000078143E9612078C006B9
:100D800035D5606901280CD0401D686B23D03843ED
:100D90006863686B400840006863FFF797FD06468C
:100DA00022E0686B38436863686B30436863FFF721
:100DB0008DFD064604E0FFF789FD801B02285BD805
:100DC000686B8007F7D5686BF8218843A169C90073
:100DD000084368630BE0B8436863F4E74CE0FFF74F
:100DE00075FD801B022847D8686B8007F7D4206AFE
:100DF00000285ED069680907890F022942D00126C0
:100E000036060228286805D0B0432860FFF75EFD4B
:100E1000044633E0B0432860FFF758FD074604E07E
:100E2000FFF754FDC01B022826D828688001F7D49C
:100E3000E86AE16A000900010843E862616AA06AA1
:100E4000084369683D22120491430843686028689A
:100E500030432860FFF73AFD044604E0FFF736FD13
:100E6000001B022808D828688001F7D521E0FFF789
:100E70002DFD001B022801D90320FEBD286880013A
:100E8000F5D416E00128F8D06868E96A0122120456
:100E9000636A02409A420AD10907E26A090F914245
:100EA00005D10F2189040840A16A884201D00120A0
:100EB000FEBD0020FEBD000000100240007000409A
:100EC00088130000094910B5401E884201D901204D
:100ED00010BD074C60610321081F00F0B7FB002024
:100EE000A06107202061002010BD0000FFFFFF006F
:100EF00000E000E010B5040003D0606F002802D0CD
:100F000007E0012010BD002170200155204600F0AF
:100F100027F82420606720680168490849000160BB
:100F2000204600F075FA0128ECD0606A002802D053
:100F3000204600F0D7F9206841680922D202914387
:100F40004160206881682A2291438160206801689D
:100F5000012211430160204600F02AFA10BD000072
:100F600010B586B0044614216846FFF72FF91249E0
:100F7000206888421DD11148C269012149040A43F1
:100F8000C261C2690A40059242690A4342614069EE
:100F9000084005900A48009002200190002002902D
:100FA000032003900120049009206946C006FFF742
:100FB000E3FB06B010BD00000044004000100240FA
:100FC00004800000FFB50446806F85B017460E46CA
:100FD00020286AD1002E0AD0002F08D0A168C001B5
:100FE000814207D12069002804D1F00702D00120F6
:100FF00009B0F0BD204660300290007C012854D03A
:101000000298012101740020E0672220A067FFF709
:101010005DFC2546403504902F836F830120A16835
:101020000003FF22814204D12369002B09D1204A09
:1010300007E0002901D0002203E02369002B00D043
:101040007F22AA8392B20192814202D120690028B4
:1010500002D03746002600E00027D0B20390688B0C
:1010600000281CD008980090002220212046049BD4
:1010700000F072FA002801D00320B9E72068002FA1
:10108000808C07D00399084038707F1C688B401E05
:101090006883E4E7019908403080B61CF6E7202019
:1010A000A067029900200874A2E70220A0E70000D0
:1010B000FF010000FFB50446406F83B017460D46A0
:1010C00020285CD1002D0AD0002F08D0A168C001D3
:1010D000814207D12069002804D1E80702D001200D
:1010E00007B0F0BD204660300290007C012846D059
:1010F0000298012101740020E06721206067FFF75A
:10110000E5FB264640360190378277820120A168B0
:101110000003814202D12069002802D02F46002519
:1011200011E000270FE000228021204600F014FA91
:10113000002815D1002F15D02168387808857F1C2C
:10114000708A401E7082708A019B00280698009069
:10115000E9D100224021204600F0FEF9002808D005
:101160000320BDE728882168C005C00D0885AD1C97
:10117000E6E720206067029900200874B0E70220AB
:10118000AEE7FEE73EB500211548009101910291BE
:10119000416081600124114A04610260C16004223F
:1011A0004261017641768176FF22C176C232C26108
:1011B00002460162203211718462FFF79BF920031D
:1011C000009401900724694605480294FFF776F8D9
:1011D000694603480094FFF771F83EBD00240140C2
:1011E0001C000020F0B587B014216846FEF7EEFF22
:1011F00015484269012149040A43426142690A4093
:101200000592426989000A43426140690326084009
:101210000E4F36020590002231463846FFF750FB4C
:101220000B48012500240190694600950294800234
:10123000FFF7A2FA02946946384600960195039496
:10124000FFF79AFA07B0F0BD00100240000800480E
:101250000000121010B50A4808490160E121490256
:10126000416000218160C16001618161C1610C2226
:10127000016242614162FFF73DFE10BD0044004043
:101280005C00002070477047704710B5FFF724FBE3
:1012900010BD30B591B030216846FEF797FF0024AD
:1012A00012200F94009001200D94039005901020BF
:1012B0000E94049006900520C00402250A900C9418
:1012C000089509940B946846FFF738FC07200C90AA
:1012D0000E9401210D950F940CA8FFF75BFB11B044
:1012E00030BD704710B5818CC90707D001684A68C6
:1012F00001235B049A43836A1A434A60818C8907FD
:1013000007D501684A6801231B049A43C36A1A433C
:101310004A60818C490707D501684A6801239B040C
:101320009A43036B1A434A60818C090707D5016809
:101330004A680123DB039A43436B1A434A60818C5A
:10134000C90607D50268916801231B039943836B83
:1013500019439160818C890607D501688A68012349
:101360005B039A43C36B1A438A60818C490612D58A
:1013700003685A6801210905046C8A4322435A60B4
:10138000026C8A4207D10268516803235B059943C6
:10139000436C19435160818C090607D501684A687E
:1013A0000123DB04806C9A4302434A6010BD0000B5
:1013B000F8B500260446C667FFF788FA0546206898
:1013C0000068124F000709D501212B46002249056C
:1013D0002046009700F0C0F800280DD12068006872
:1013E00040070BD501212B46002289052046009796
:1013F00000F0B2F8002801D00320F8BD202060677B
:10140000A067603426740020F8BD0000FFFFFF01D4
:1014100070B5044680682169E26908436169002566
:101420001143226808431168444B1940014311607D
:1014300021684868032212039043E2681043486021
:10144000A169206A2268084391680B231B02994313
:10145000014391603A492068884210D13948006BB5
:101460008007800F11D0012805D0022805D003285D
:101470000AD1022009E0042007E0082005E03249F3
:10148000884201D1002000E010200122E169D2034E
:101490002E4E914228D1002806D0022807D00428D9
:1014A00017D0082844D11AE0FFF7F8FA13E0616872
:1014B000274A48088018FEF719FE80B20146103905
:1014C000B14235D82149491C01400007400F08436B
:1014D00021E0FFF7F3FA616840004A08EAE7616833
:1014E000012248081204E5E7002806D0022807D0A8
:1014F000042813D008281BD116E0FFF7CFFA0FE01D
:101500006168144A480811E0FEF7F0FD80B2014618
:101510001039B1420CD82168C8600AE0FFF7CEFA52
:1015200061684A081018EFE7616848088018EBE71F
:101530000125002020666066284670BDF369FFFF24
:10154000003801400010024000440040EFFF00005E
:101550000024F40000127A00FFB581B005460F4662
:10156000044660350A9E38E0701C36D0FFF7AEF9AD
:101570000499401AB04221D8002E1FD0206801687B
:1015800049072AD5C069C043000526D40120216837
:10159000C002086220680168FF22A1329143016005
:1015A0002068816849084900816020206067A06741
:1015B000E06700202874032005B0F0BD20680168B2
:1015C000FF22A132914301602068816849084900E7
:1015D000816020206067A067EBE72068C16938461A
:1015E000884305D0002103988142BDD00020E3E765
:1015F0000121F8E70FB410B504A9074B02AA03981C
:1016000000F056F8044602A9002000F0F9F8204640
:1016100010BC08BC04B0184701180008F8B5040C49
:101620008BB2264682B25E430D0C1046370C5843EF
:10163000360480190021794116466E43370C360472
:101640008019794126466E438919F8BD8307FF2228
:10165000DB0E9A408907090E9940002808DB8308B1
:1016600009489B001B18186890430843186070478E
:101670000007000F0838830804489B001B18D8692E
:1016800090430843D861704700E400E000ED00E0BB
:1016900002E008C8121F08C1002AFAD1704770473B
:1016A000002001E001C1121F002AFBD17047000099
:1016B000FFB58DB00446002506E025280AD0109A13
:1016C0000F999047641C6D1C20780028F5D128469E
:1016D00011B0F0BD00270121484A009700E0074300
:1016E000641C23780846203B98401042F7D12078AC
:1016F0002E2817D1042007436078641C2A280CD1B7
:101700000E98641C02C800910E900BE000990A220A
:10171000514330394018641C00902078014630391C
:101720000929F3D920780028D1D0642808D0692865
:1017300006D075281ED0109A0F9990476D1C5BE05B
:101740000A200E99019001C90E91002802DA404248
:101750002D2102E0390504D52B216A4611720121A1
:1017600003E0F90704D02021F7E70BAE0B910DE061
:101770000021FAE70A200E99019001C90E91F7E7BE
:101780000199FEF7B3FC3031761E31700028F7D195
:1017900003A8801B20300190780701D5009801E054
:1017A000012000900199884201DD401A00E00020EC
:1017B0000027009006E002A8109AC05D0F9990479C
:1017C0006D1C7F1C0B988742F5DB04E0109A3020DB
:1017D0000F9990476D1C0099481E00900029F5DC78
:1017E00005E03078109A761C0F9990476D1C01998E
:1017F000481E01900029F4DC641C65E709280100FB
:101800000A68531C0B601070704700007FB505A17B
:101810003AC96E463AC602461021684600F0B8F84A
:1018200004B070BD41542B434950434C4F53450DB8
:101830000A0D0A0010B592B00446442205496846D4
:10184000FEF7ABFC22464421684600F0A1F812B036
:1018500010BD0000601A000870B504460D46084629
:1018600000F066F82846FFF7E5FF2946204600F01D
:1018700025F82846FFF7CAFF70BD0000FFF734F8CF
:10188000FFF707FDFFF7AEFCFFF77CFCFFF7E2FC7C
:10189000084800F061F87D25074CED000548403808
:1018A000FEF71AFF2846FEF755FF02496068FFF76A
:1018B000D3FFF3E75C0000200400002030B5CBB07C
:1018C0000D460446024614A148A8FFF793FE0022E5
:1018D00048A800E0521C815C0029FBD123460F4937
:1018E0006846FFF787FE0024684600E0641C015D3F
:1018F0000029FBD122460AA140A8FFF77BFE2A4619
:10190000202140A800F044F82A462146684600F00D
:101910003FF84BB030BD000025640000D819000826
:1019200041542B43495053454E443D25640D0A0014
:101930007FB505A13AC96E463AC602460E216846F1
:1019400000F026F804B070BD41542B4349504D556A
:10195000583D300D0A00000010B586B0044618222C
:1019600005A16846FEF719FC22461521684600F0DD
:101970000FF806B010BD000041542B43495053539B
:101980004C53495A453D343039360D0A00000000A9
:1019900070B514468AB27D25ED0001462B462046DF
:1019A000FFF788FB002801D0012070BD01222B46E3
:1019B000520202492046FFF705FB70BDDC00002003
:1019C00000000000000000000102030406070809EF
:1019D0000000000001020304504F5354202F4C69B3
:1019E0006768742E6A736F6E20485454502F312EDE
:1019F000310D0A486F73743A2070726F6A656B74A8
:101A00002D6F63682D70726F6A656B746D65746F8E
:101A10006465722E6669726562617365696F2E63B3
:101A20006F6D0D0A436F6E74656E742D5479706519
:101A30003A20746578742F706C61696E0D0A436F7B
:101A40006E74656E742D4C656E6774683A202564FB
:101A50000D0A0D0A25640D0A0D0A0D0A000000008A
:101A600041542B43495053544152543D2253534CFB
:101A7000222C2270726F6A656B742D6F63682D70F3
:101A8000726F6A656B746D65746F6465722E6669DA
:101A9000726562617365696F2E636F6D222C3434D9
:101AA000330D0A00C41A0008000000201C000000CA
:101AB00090160008E01A00081C000020C406000070
:101AC000A016000800000000000000000000000058
:101AD00001000000040000000000000000127A0075
:04000005080000BD32
:00000001FF
