:020000040800F2
:10000000E0060020D1000008FD180008FB170008DA
:1000100000000000000000000000000000000000E0
:1000200000000000000000000000000001190008AE
:100030000000000000000000FF180008031900087D
:10004000E3000008E3000008E3000008E300000804
:10005000E3000008E3000008E3000008E3000008F4
:10006000E3000008E3000008E3000008E3000008E4
:10007000A1080008E3000008E3000008E30000080E
:10008000E3000008E300000800000000E3000008AF
:10009000E3000008E3000008E3000008E3000008B4
:1000A000E3000008E3000008E3000008E3000008A4
:1000B000E300000800000000E30000080348854654
:1000C00000F0C8FB00480047A1260008E006002019
:1000D0000448804704480047FEE7FEE7FEE7FEE7E6
:1000E000FEE7FEE75B190008BD00000830B50B46CF
:1000F000014600202022012409E00D46D5409D4202
:1001000005D31D469540491B254695404019154687
:10011000521E002DF1DC30BDF0B51FB406460020A4
:1001200082B005464024019100901BE001992246CF
:100130000F46304600F020F8049A059B801A99413A
:1001400010D310461946224600F067F9361A8F413F
:100150000197224601200021009F00F05EF9381827
:100160004D4100902046641E0028DFDC019B009872
:100170002946324607B0F0BD10B5202A04DB0846F8
:10018000203AD040002110BD0B46D340D04020245F
:10019000A21A91400843194610BD03460B439B0722
:1001A00003D009E008C9121F08C0042AFAD203E0EC
:1001B0000B780370401C491C521EF9D27047D2B212
:1001C00001E00270401C491EFBD270470022F6E796
:1001D00010B513460A4604461946FFF7F0FF2046BD
:1001E00010BDF8B502464A40D40F42004B005208F9
:1001F0005B089A4202D20246084611464A0023D0C2
:10020000C30D4A00DDB2120EAD1A202D35DA4902B7
:100210000126490AF6058A19002C00D052422021F5
:100220004F1B1146B9402A411018C20D9A4221D0E5
:10023000002C17D0012D08DCDA05801AD20F8019A6
:10024000D207DBB200F001F9F8BDDA05801A01230C
:1002500040001B06C01880185A428018CA0F10436D
:10026000490007E04908C2071143DA05801A8019DE
:100270004008801800F0E1F8F8BD61000122511A31
:10028000001BF7E70122D2075140AAE70122D2075B
:100290005040A6E7F0B50C465C4085B0E40FE4079B
:1002A00003944C000026640859009446490802460D
:1002B0000296224321D062460A431ED06200570DA7
:1002C0004A000E032303550D012402462C49240540
:1002D000781B1B0B360B40182343264361460090C6
:1002E0001C46501AB44103D30098401C009002E011
:1002F000921800985B41002803DA0020014605B0FF
:10030000F0BD0020012109050746864611E064463C
:100310001D46141BB54106D36546521BB3417446B6
:1003200007430C43A646CD074008490828439218C6
:100330005B4105460D43EAD11046184313D0604691
:10034000194650407140084306D06046101AB34128
:1003500006D20122002306E000220123DB0702E08F
:100360000122D2435310009874460105381C6141A4
:10037000029C039D0019694100F0BFF8BFE700002F
:10038000FD03000010B500229623114600F05DF831
:1003900010BD410040020122400AD205090E80181A
:1003A0007F2901DA00207047962903DC9622511A32
:1003B000C8407047963988407047C20FD207400046
:1003C00040080BD0C10D0723DB01C9184002090505
:1003D000400A1143C20840071143704700200146FC
:1003E0007047CB0FDB07490010B5490802460A43A6
:1003F00007D00A0D07240903E401090B121B002A88
:1004000001DC002010BDC900440F0C43C100E018FE
:10041000D205801800F011F810BD10B5202A04DBB9
:100420000146203A9140002010BD914020239C1AA3
:100430000346E3401943904010BD002904DA401CF4
:10044000490001D140084000704770B40024050CF9
:1004500005D11024000402D1002921D01124050E59
:1004600001D100020834050F01D10001241D850FC0
:1004700001D18000A41C002801DB4000641C00297D
:1004800008D020252E1B0D46F540A14000D00121AB
:100490002943084301061B1B000ADB1D02D500206F
:1004A00070BC7047DB05181880180029F8DA401C6A
:1004B0004900F5D170BC40084000704710B54100BC
:1004C0000DD04100090E962909DC7E290ADC07DBE4
:1004D000410205D0C00F7F21C007C905401810BDDB
:1004E000002010BD9622541A20210A1B014691407B
:1004F000E040FFF7A2FFA04010BD10B5002B08DAC6
:100500000024401C614192185B411A4301D140080C
:10051000400010BDF0B51FB482B005460C0003D0FA
:10052000084601F0B7FB02E001F0B4FB20300246C0
:10053000009021462846FFF770FF049B059A044669
:100540000F4618431143084314D0184610431BD0DC
:10055000009840210A1A18460599FFF70DFE054636
:100560000E46009A05990498FFF757FF084305D0F7
:10057000012004E02046394607B0F0BD0020C11735
:1005800005430E432C43374300990E986305401AE8
:100590007905E40A00220C43FD0A0A3002D5002046
:1005A0000146E9E70105101969410C9C0D9D0019F0
:1005B0006941FFF7A2FFDFE7F0B50746084658405C
:1005C00087B0C00F049048000E4659004008490803
:1005D000BC1A884105D2384631461E4617460B469E
:1005E00002465800400810434CD0300D039040059F
:1005F0005900400D490D0590401A0290402872DACA
:1006000018030121000B090508430190049800928A
:10061000002805D0019952420020884100920190A3
:10062000029840210A1A01990098FFF7F6FE054644
:100630000C466B4607CB00F01FF9C0197141039AB5
:100640000E0D0023D71756401A467A40164344D061
:10065000049A002A2DD0029A012A039A15DC120569
:10066000C01A914101263605001C7141D20F059E2A
:10067000D2070093019202962A462346FFF74AFFCB
:1006800007B0F0BD38463146FAE71605224A0F4654
:10069000B218C01AB74101210905001C4F410018CA
:1006A0007F41114618187941E20F10436D196441DA
:1006B00013E0E2076D0815436408C2071443039A68
:1006C00001261205C01A91413605001C7141CE0762
:1006D000400830434908C01851412A462346FFF7D5
:1006E0000CFFCDE7FFE7049801224000C117121A62
:1006F00000238B4104983146C417381AA141EEE714
:1007000030B40124E407634030BC55E730B4012421
:10071000E407614030BC4FE70000E0FFF0B51FB4D4
:1007200088B00B990998002448400999C00F4900E6
:1007300049080991C0070B990090490049080B919D
:1007400009990898A64608431CD00B990A980843B3
:1007500018D0099801244000420D4800410D099825
:1007600024050003000B204309900B980003000BA5
:1007700020430B9050181C49401800220190144649
:10078000104605E0002001460DB0F0BD032801DA57
:10079000034600E003239C46C11A0AAE0AE05F004C
:1007A00008ADED5B4F00F75B7D430027AA187C4145
:1007B000491C5B1E6145F2DD410004AB5A52210425
:1007C000120C0A43240C401C0828DFDB019802901D
:1007D0000099704601910090059B049A079906982C
:1007E000FFF798FED0E700000DFCFFFF4A00090369
:1007F0000123090B1B0519430A4B10B5520D9A42F0
:1008000002DA0020014610BD064B34339A4203DC65
:100810009A1AFFF7B1FC10BD034BD218FFF7FDFD8C
:1008200010BD0000FF030000CDFBFFFF10B5002945
:1008300004DB0124E40740428C412146002B04DB09
:100840001C460123DB075242A341994200D190424A
:1008500010BD0000064C0125064E05E0E36807CCFC
:100860002B430C3C98471034B442F7D3FFF72AFCD3
:100870008C290008AC29000810B5202A06DBCB170C
:100880000846203A1041C1170B4306E00B461341BE
:10089000D0402024A21A91400843194610BD000000
:1008A00010B5024800F0FAF810BD00001C0000204E
:1008B000F8B5044600200090206881688907890FF8
:1008C000012905D10168C9072CD1C168090429D4BF
:1008D0008168154A102611400125002915D181682B
:1008E00029438160124811490068FFF7FFFB00E0CF
:1008F000401E00900028FBD100F024FB07460CE0CE
:1009000000F020FBC01B022807D9A06B3043A06376
:10091000E06B2843E0630120F8BD20680068C04315
:10092000C007EDD10020F8BD1700008040420F0045
:1009300018000020F8B50025044620340095227DDB
:10094000012A3BD00122227503689E68760776D47F
:100950003F4F4E68BE4254D09E6A0F78BA4016434D
:100960009E620123C26A1B079A421FD0012A1DD032
:10097000022A1BD0032A19D0042A17D0052A15D021
:10098000062A13D0072A11D002688B6856697607A9
:10099000760FB3420AD05369DB08DB00536100686D
:1009A00042690B7A5B075B0F1A43426108681028A3
:1009B00006D0112804D0122802D045E00220F8BD4C
:1009C000244A9368102809D011280AD00120000673
:1009D000034393600868102806D035E00120C00565
:1009E000F6E701208005F3E71C481B490068FFF784
:1009F0007DFB0A21484300E0401E00900028FBD107
:100A000022E0986A0E78B2409043986208681028F5
:100A100003D0112801D0122816D10E498A68102857
:100A200007D0112808D00120000682438A600BE01D
:100A300005E00120C005F8E701208005F5E7816B9E
:100A40002022114381630125002020752846F8BD2E
:100A5000011000000027014040420F001800002054
:100A600070B5044600680068094D400709D5204666
:100A700000F011F8014628682B1D82009950401C97
:100A8000286020680068000701D50020286070BD3C
:100A90000000002070470068006C704770B5044685
:100AA00000680168490702D54168490705D4016813
:100AB000090730D5416809072DD5A16BC90604D4B3
:100AC000A16B012252021143A163C1680C250905E3
:100AD000890F00291AD1A17E002917D101680907C1
:100AE00014D581684A070121002A08DB4268AA431D
:100AF0004260A06B0A0290430843A06306E0A06B2B
:100B000020221043A063E06B0843E0632046FFF718
:100B1000A7FF206805602068016809060DD54068B8
:100B200000060AD5A06B012109040843A0632046F2
:100B300000F0D8F821688020086020680168C906A4
:100B400013D54168C90610D5A16A1025012902D024
:100B5000C168C90707D0E16B02221143E163056058
:100B60002046FFF797FF2068056070BDF8B50026A6
:100B70000446002805D0A06B25462035002802D069
:100B800007E00120F8BD0020E0632875204600F052
:100B9000ABF8A06B1022C006002870DB20688168CB
:100BA00049076CD4A16B1301994302231943A16334
:100BB00081688907890F012905D10168C9070FD10B
:100BC000C16809040CD4C16818239943A368194368
:100BD000C16020680169636889008908194301615F
:100BE0002068C1683D4B1940C160207E617E800352
:100BF000C9030843A17E4B031843A36A012B02D00B
:100C000001231B0300E000231843E3681843236912
:100C1000022B09D0002318432B79E57E5B00184393
:100C20000123012D02D00AE00423F4E7002927D094
:100C3000A16B20252943A163E16B1943E163E169BD
:100C40000D46FF3DC23D02D0256A29430843216875
:100C5000CD680543CD600125E16A2D07A94213D077
:100C6000012911D002290FD003290DD004290BD05E
:100C7000052909D0062907D0072905D010E028E06A
:100C8000012109040843DAE721684D69ED08ED0008
:100C90004D6121684D69A78D7F077F0F3D434D61F1
:100CA0002168C9680E4D2940814207D10020E063C8
:100CB000A06B80088000401CA06308E0A06B0221AC
:100CC00088431043A063E06B1843E063012630467D
:100CD000F8BDA06B1043A063F8E700001902FEFF07
:100CE000E7FF3F837047000010B586B0044614212B
:100CF0006846FFF76BFA14492068884221D11348EF
:100D0000826941150A43826182690A4005924269FB
:100D100009020A4342614069084005908220009020
:100D2000032001900020029009206946C00600F0CF
:100D30005FF8002211460C2000F064F90C2000F04E
:100D400055F906B010BD000000240140001002401B
:100D500070B50446216800208968490732D42546C9
:100D60002035297D01292DD001212975617E012998
:100D700004D02046FFF79CFD002818D1A16B124A31
:100D80001140FF2201321143A1630021E163297563
:100D900022681C21116063690422082B08D0236893
:100DA0005D680D435D6021688B6813438B6070BD87
:100DB00021684B6893434B6021684B6818252B438F
:100DC0004B60F0E7022070BDFEF1FFFF70B50446F6
:100DD00000F0B8F80546601C02D0044800782418DA
:100DE00000F0B0F8401BA042FAD370BD0C00002008
:100DF000F8B500238DE001249C40A44622407DD01C
:100E00004C68022C01D0122C0CD1DC08A40027184D
:100E10003C6A5D07ED0E0F26AE40B4430E69AE404E
:100E200026433E6205685E000324B4400F79A54363
:100E3000BF07BF0FB7402F4307604D68012D05D096
:100E4000022D03D0112D01D0122D0ED18568CF684F
:100E5000A543B7402F43876047686546AF430D7988
:100E6000ED06ED0F9D403D434560C568A5438C6888
:100E7000B4402C43C4604C68E40049D5284CA569B3
:100E800001263543A561A4699D0834400094254C92
:100E9000AD002F19BC689D072E0F0F25B540AC4340
:100EA0000925ED06A84201D100250FE01E4DA842FC
:100EB00001D101250AE01D4DA84201D1022505E01E
:100EC0001B4DA84201D1032500E00525B54025436F
:100ED000BD60184C25684E689543F60300D5154350
:100EE000256065684E689543B60300D51543656077
:100EF000A5684E689543F60202D500E008E0154368
:100F0000A560E5684E689543B60200D51543E560D7
:100F10005B1C0A681446DC4000D06CE7F8BD00009A
:100F20000010024000000140000400480008004892
:100F3000000C004800040140002A01D08161704784
:100F40008162704701488068704700000C000020F3
:100F50000248816802788918816070470C0000207F
:100F600010B506480168102211430160002000F00E
:100F700007F800F027F8002010BD00000020024014
:100F800070B504460D4D7D202978C000FFF7AEF8FE
:100F900001460B480068FFF7A9F800F0CFFA0028D7
:100FA00009D1042C07D200222146401E00F02AF865
:100FB00000206C6070BD012070BD00000C0000209E
:100FC0001800002008B50848816901221143816199
:100FD000816911400091C26901040A43C261C0697C
:100FE0000840009008BD000000100240002805DB0A
:100FF000C106C90E01208840014908607047000001
:1010000000E100E010B500F075FE10BDF8B50F4628
:10101000060059D03A4D2868C007C00FB84209D21F
:10102000286840084000384328602868C007C00F7F
:10103000B84249D13068334C81070CD5400704D5FC
:10104000606807210902084360606068F0218843F6
:10105000B168084360603078C00726D07068012806
:101060000ED0216802280ED0890700292CDA616889
:101070008908890001436160FFF764FF00900DE07B
:1010800021688903F1E78901EFE7FFF75BFF00992A
:10109000411A1D48814201D90320F8BD60680C2126
:1010A0000840716889008842EFD12868C007C00FE6
:1010B000B8420BD9286840084000384328602868A7
:1010C000C007C00FB84201D00120F8BD30784007FA
:1010D00006D56068072109028843F168084360600B
:1010E00000F028F86168094A0906090F515CC840F8
:1010F000074908600020FFF743FF0020F8BD00000B
:10110000002002400010024088130000A2280008BE
:10111000180000200448054900684968044A490548
:10112000490F515CC8407047180000200010024071
:10113000B228000810B514A30FCB88B06C460FC4BA
:1011400015A30FCB0FC4184A51680C200B4603405F
:101150001648042B16D0082B14D18B021B0F6C469B
:10116000E45CD26A04AB1207120F9A5CC90305D57E
:1011700000231946FEF7D0FF214601E020460C4926
:1011800000F09FFD08B010BD020304050607080922
:101190000A0B0C0D0E0F10100102030405060708C0
:1011A000090A0B0C0D0E0F100010024000127A00FD
:1011B00000093D00FEB5040070D02078DC4DC0076A
:1011C0004AD068680007800F012807D068680007C8
:1011D000800F022809D16868C00306D528688003FB
:1011E0003AD560680028E7D036E06168012914D05C
:1011F00001208004002901D0052914D02A6801218A
:1012000009048A432A6029688143296060680028AC
:1012100016D0FFF797FE06460EE028680121090464
:1012200008432860F2E7296801432960F5E7FFF7E2
:1012300089FE801B64286ED828688003F7D50BE0F0
:10124000FFF780FE064604E0FFF77CFE801B642863
:10125000F1D828688003F7D4207801268007002879
:101260003CDA68680007800F07D068680007800FC5
:10127000022809D16868C00306D42868800716D5FB
:10128000E06801280AD112E0E0680028286816D03A
:1012900030432860FFF756FE074605E043E1FFF7BD
:1012A00051FEC01B0228C6D828688007F7D52868D9
:1012B000F82188432169C900084328600EE04008EE
:1012C00040002860FFF73EFE074604E0FFF73AFEC5
:1012D000C01B0228AFD828688007F7D42078000701
:1012E00022D5E0690028686A0ED030436862FFF7B3
:1012F00029FE074604E0FFF725FEC01B02289AD806
:10130000686A8007F7D50FE0400840006862FFF781
:1013100019FE074605E09DE0FFF714FEC01B0228FA
:1013200089D8686A8007F7D4207804274007002806
:1013300060DA00200190E869C00008D4E969B806C5
:101340000143E961E9690140012000910190794878
:101350000168C90511D40168821511430160FFF7C6
:10136000F1FD009005E0FFF7EDFD0099401A6428BB
:1013700070D870480068C005F5D5A06801280AD06B
:10138000002801D0052810D0286A400840002862B3
:10139000286AB84301E0286A30432862A068002820
:1013A00012D0FFF7CFFD00900AE0286A3843286288
:1013B000F1E7FFF7C7FD0099411A5F48814249D81C
:1013C000286A8007F5D50DE0FFF7BCFD009006E028
:1013D000FFF7B8FD0099411A574881423AD8286A68
:1013E0008007F5D40198002804D0E969012000079E
:1013F0008143E9612078C00635D5606901280CD0A9
:10140000401D686B23D038436863686B4008400018
:101410006863FFF797FD064622E0686B3843686310
:10142000686B30436863FFF78DFD064604E0FFF705
:1014300089FD801B02285BD8686B8007F7D5686B35
:10144000F8218843A169C900084368630BE0B843E9
:101450006863F4E74CE0FFF775FD801B022847D86E
:10146000686B8007F7D4206A00285ED06968090796
:10147000890F022942D0012636060228286805D0A5
:10148000B0432860FFF75EFD044633E0B0432860B8
:10149000FFF758FD074604E0FFF754FDC01B022884
:1014A00026D828688001F7D4E86AE16A00090001BB
:1014B0000843E862616AA06A084369683D22120431
:1014C000914308436860286830432860FFF73AFD7D
:1014D000044604E0FFF736FD001B022808D8286800
:1014E0008001F7D521E0FFF72DFD001B022801D96F
:1014F0000320FEBD28688001F5D416E00128F8D04D
:101500006868E96A01221204636A02409A420AD1B9
:101510000907E26A090F914205D10F2189040840A9
:10152000A16A884201D00120FEBD0020FEBD00005E
:10153000001002400070004088130000094910B5F7
:10154000401E884201D9012010BD074C6061032173
:10155000081F00F0CFFB0020A061072020610020C1
:1015600010BD0000FFFFFF0000E000E010B5040028
:1015700003D0606F002802D007E0012010BD0021D9
:1015800070200155204600F027F82420606720686D
:101590000168490849000160204600F075FA0128F9
:1015A000ECD0606A002802D0204600F0D7F920680D
:1015B00041680922D20291434160206881682A2251
:1015C0009143816020680168012211430160204637
:1015D00000F02AFA10BD000010B586B004461421B0
:1015E0006846FEF7F3FD1249206888421DD1114874
:1015F000C269012149040A43C261C2690A400592D5
:1016000042690A4342614069084005900A480090D7
:1016100002200190002002900320039001200490FA
:1016200009206946C006FFF7E3FB06B010BD0000C5
:10163000004400400010024004800000FFB5044652
:10164000806F85B017460E4620286AD1002E0AD03A
:10165000002F08D0A168C001814207D1206900286D
:1016600004D1F00702D0012009B0F0BD204660305F
:101670000290007C012854D00298012101740020BE
:10168000E0672220A067FFF75DFC25464035049007
:101690002F836F830120A1680003FF22814204D1C0
:1016A0002369002B09D1204A07E0002901D000223C
:1016B00003E02369002B00D07F22AA8392B201921B
:1016C000814202D12069002802D03746002600E07E
:1016D0000027D0B20390688B00281CD00898009097
:1016E000002220212046049B00F072FA002801D03D
:1016F0000320B9E72068002F808C07D003990840A9
:1017000038707F1C688B401E6883E4E701990840AD
:101710003080B61CF6E72020A067029900200874EC
:10172000A2E70220A0E70000FF010000FFB5044689
:10173000406F83B017460D4620285CD1002D0AD09B
:10174000002F08D0A168C001814207D1206900287C
:1017500004D1E80702D0012007B0F0BD2046603078
:101760000290007C012846D00298012101740020DB
:10177000E06721206067FFF7E5FB264640360190D1
:10178000378277820120A1680003814202D120695B
:10179000002802D02F46002511E000270FE000228C
:1017A0008021204600F014FA002815D1002F15D012
:1017B0002168387808857F1C708A401E7082708A84
:1017C000019B002806980090E9D100224021204684
:1017D00000F0FEF9002808D00320BDE72888216822
:1017E000C005C00D0885AD1CE6E7202060670299A2
:1017F00000200874B0E70220AEE7FEE73EB5002106
:101800001548009101910291416081600124114AC3
:1018100004610260C16004224261017641768176F2
:10182000FF22C176C232C2610246016220321171CA
:101830008462FFF79BF92003009401900724694616
:1018400005480294FFF776F8694603480094FFF7CD
:1018500071F83EBD002401401C000020F0B587B0A7
:1018600014216846FEF7B2FC15484269012149047B
:101870000A43426142690A400592426989000A436B
:1018800042614069032608400E4F3602059000224F
:1018900031463846FFF750FB0B48012500240190E4
:1018A0006946009502948002FFF7A2FA0294694605
:1018B0003846009601950394FFF79AFA07B0F0BDF9
:1018C00000100240000800480000121010B50A483D
:1018D00008490160E1214902416000218160C16045
:1018E00001618161C1610C22016242614162FFF7C5
:1018F0003DFE10BD004400405C0000207047704772
:10190000704710B5FFF724FB10BD30B591B0302102
:101910006846FEF75BFC002412200F940090012023
:101920000D940390059010200E94049006900520CD
:10193000C00402250A900C94089509940B946846FB
:10194000FFF738FC07200C900E9401210D950F94A1
:101950000CA8FFF75BFB11B030BD704710B5818C50
:10196000C90707D001684A6801235B049A43836A68
:101970001A434A60818C890707D501684A680123A8
:101980001B049A43C36A1A434A60818C490707D5EE
:1019900001684A6801239B049A43036B1A434A6017
:1019A000818C090707D501684A680123DB039A4344
:1019B000436B1A434A60818CC90607D50268916857
:1019C00001231B039943836B19439160818C890622
:1019D00007D501688A6801235B039A43C36B1A43E6
:1019E0008A60818C490612D503685A68012109056D
:1019F000046C8A4322435A60026C8A4207D102680F
:101A0000516803235B059943436C19435160818CF2
:101A1000090607D501684A680123DB04806C9A43F4
:101A200002434A6010BD0000F8B500260446C667B0
:101A3000FFF788FA054620680068124F000709D5AD
:101A400001212B46002249052046009700F0C0F8EE
:101A500000280DD12068006840070BD501212B46D6
:101A6000002289052046009700F0B2F8002801D036
:101A70000320F8BD20206067A06760342674002032
:101A8000F8BD0000FFFFFF0170B5044680682169C2
:101A9000E26908436169002511432268084311681F
:101AA000444B194001431160216848680322120326
:101AB0009043E26810434860A169206A22680843A5
:101AC00091680B231B029943014391603A492068B6
:101AD000884210D13948006B8007800F11D001284F
:101AE00005D0022805D003280AD1022009E00420ED
:101AF00007E0082005E03249884201D1002000E0DB
:101B000010200122E169D2032E4E914228D10028F3
:101B100006D0022807D0042817D0082844D11AE09C
:101B2000FFF7F8FA13E06168274A48088018FEF7C3
:101B3000DDFA80B201461039B14235D82149491C3D
:101B400001400007400F084321E0FFF7F3FA616806
:101B500040004A08EAE76168012248081204E5E704
:101B6000002806D0022807D0042813D008281BD14B
:101B700016E0FFF7CFFA0FE06168144A480811E059
:101B8000FEF7B4FA80B201461039B1420CD8216890
:101B9000C8600AE0FFF7CEFA61684A081018EFE75C
:101BA000616848088018EBE7012500202066606620
:101BB000284670BDF369FFFF003801400010024065
:101BC00000440040EFFF00000024F40000127A00FF
:101BD000FFB581B005460F46044660350A9E38E0E1
:101BE000701C36D0FFF7AEF90499401AB04221D8E4
:101BF000002E1FD02068016849072AD5C069C0435C
:101C0000000526D401202168C0020862206801680E
:101C1000FF22A13291430160206881684908490090
:101C2000816020206067A067E0670020287403209F
:101C300005B0F0BD20680168FF22A1329143016028
:101C40002068816849084900816020206067A0679A
:101C5000EBE72068C1693846884305D00021039826
:101C60008142BDD00020E3E70121F8E70FB410B5B1
:101C700004A9074B02AA039800F028F9044602A918
:101C8000002000F0BFFC204610BC08BC04B0184780
:101C9000052600082021020C01D010211046020A5E
:101CA00001D010460839020901D01046091F8208E8
:101CB00001D01046891E420801D0881E7047081ABC
:101CC0007047F8B5040C8BB2264682B25E430D0C09
:101CD0001046370C584336048019002179411646C6
:101CE0006E43370C36048019794126466E438919B4
:101CF000F8BD00008307FF22DB0E9A408907090E1A
:101D00009940002808DB830809489B001B181868C5
:101D100090430843186070470007000F0838830895
:101D200004489B001B18D86990430843D86170474A
:101D300000E400E000ED00E002E008C8121F08C166
:101D4000002AFAD170477047002001E001C1121F3C
:101D5000002AFBD170470000F0B51FB486B0099887
:101D6000089A030D0021024314D05148514A181813
:101D7000504305141198012810981AD0281A401CB5
:101D800000264D4F4D49009601910490002812DA2B
:101D9000444211E01198012449A3012801D110986F
:101DA000C1430698119A84600360C26041600BB021
:101DB000F0BD4042E4E70446210500203F4A001CF4
:101DC00051410391029012E0E00707D032463B46B2
:101DD00001990098FEF7A2FC0191009032463B4623
:101DE00010461946FEF79AFC06460F466410002C72
:101DF000EAD10498039B0028029A0999089806DA08
:101E0000FEF78CFC019B009AFEF788FC05E0FEF7CC
:101E100041FA019B009AFEF73DFA04460E46002265
:101E2000284BFEF703FD03D80020C043014607E01E
:101E30000022254B20463146FEF7BEFBFEF7D6FCBE
:101E4000102409E0002C0ADB0A220023FEF764F9C3
:101E5000079B30321A55641E02460A43F2D1112202
:101E6000641C079B121B1C19119B012B03D001231F
:101E700008430ED10AE0084304D01120109000203E
:101E8000119077E71098151A6D1E0BE0109882429A
:101E900002DD00236D1C03E0824201DA00236D1E87
:101EA000002BEED0069811998260C16030C07EE7A9
:101EB00001FCFFFF104D0000000014400000F03F47
:101EC000300000000000F0430000E03FFFB597B095
:101ED0000646002518E2252877D100242746FD492B
:101EE000049400E00443761C32780120203A9040AC
:101EF0000842F7D130782A280ED0022230780146E5
:101F00003039092916D804990A2359433039401821
:101F10001443761C0490F1E7189802C804911890B5
:101F2000002904DA012040030443484204900220BF
:101F30000443761C30782E2814D104200443707892
:101F4000761C2A2809D11898761C80C8189009E0B8
:101F50000A214F43303FC719761C3078014630398B
:101F60000929F5D930786C2810D006DC4C281AD015
:101F700068280ED06A2817D104E0742813D07A2874
:101F800012D110E00120400504430CE001210905B5
:101F900001E0032109050C437178814203D101203E
:101FA00000052418761C761C3078119066280BD01A
:101FB00013DC58287DD009DC00287BD04528F6D0DA
:101FC0004628F4D047281AD1A5E118E0632835D077
:101FD000642870D0652812D19DE170286CD008DC8F
:101FE0006728F1D069287BD06E280DD06F2806D1E4
:101FF000BAE073282ED0752871D0782859D01A9A53
:10200000199990476D1C7EE16002400F022809D0AB
:1020100003280DD00428189801680DD00D60001D0C
:10202000189070E11898EA1701680D604A60F6E7A9
:10203000189801680D80F2E70D70F0E718986A466D
:1020400001781172001D18900020507202A80090B3
:10205000012005E0189802C8189000200091C043A4
:1020600061070DD5002101E00199491C0191B94298
:1020700012DA8142F8DB009A515C0029F4D10BE0BE
:10208000002101E00199491C01918142FADB019A8A
:102090000099895C0029F5D1019904981A9B471A87
:1020A00021463846199A00F097FA019940194518C7
:1020B0000BE04FE02CE113E04EE00098009900782F
:1020C000491C00911A9A199990470198401E019055
:1020D000401CF2D1214638461A9B199A10E137E08C
:1020E0000A200021009001916002410F022907D0CF
:1020F000189A01CA1892C2179446032908D00AE018
:102100001898C01DC108C90005C91891944607E078
:1021100000B2C2179446042902D140B2C1178C46BE
:1021200000226146944506DA0A4600214042914168
:102130008C462D2102E0210504D52B216A4611731E
:10214000012103E0E10701D02021F7E7029155E0EA
:102150000A200AE0102008E010200090002104204E
:1021600004430191082703E0082000210191009019
:102170006002410F022907D0189A01CA1892002262
:102180009446032908D008E01898C01DC108C9006A
:1021900005C91891944603E080B2042900D1C0B269
:1021A00000210291210729D51199702906D0009AA2
:1021B0001021019B4A401A4305D00EE040216A4697
:1021C0001173012108E06146014306D030216A46BF
:1021D00011731199517302210291009A0821019BF8
:1021E0004A401A430AD16146014301D1610705D52E
:1021F00030216A46117301217F1E029111995829DD
:1022000004D035A10E910DA90D910DE037A1F9E78C
:102210006146019B009AFDF77FFF0E9B8C469B5CFD
:102220000D9A521E0D92137061460143F0D10D9824
:1022300005A9081A20300190600703D50120000489
:10224000844300E001270198874201DD381A00E04D
:102250000020019900904118029809180498401A2A
:102260000490E00306D421461A9B199A049800F0C2
:10227000B3F94519002706E003A81A9AC05D199919
:1022800090476D1C7F1C02988742F5DBE0030CD55C
:1022900021461A9B199A049800F09EF9451904E00A
:1022A0001A9A3020199990476D1C0099481E009089
:1022B0000029F5DC08E00D980D990078491C0D9176
:1022C0001A9A199990476D1C0199481E019000298E
:1022D000F1DC63E10928010030313233343536371F
:1022E0003839616263646566000000003031323362
:1022F0003435363738394142434445460000000002
:1023000000F05AF94519761C3078002800D0E2E533
:1023100028461BB0F0BD600700D406271898C01DE2
:10232000C108C90048680A680831C30FDB07189163
:10233000190001D09CA108E0210501D59BA104E072
:10234000E10701D09AA100E09AA1430011985B082F
:10235000109165280CD006DC452809D046281DD0F0
:10236000472841D141E0662818D067283CD13CE09D
:102370000021112F01DB112000E0781C0191009059
:1023800008A911A8FFF7E8FC139905910021119AFB
:1023900015927F1C12980197009150E00120C00710
:1023A00003900120019008A9009711A8FFF7D4FC21
:1023B000139A149905920022119B0092129815937A
:1023C000059A0192002901D0104602E0791C4018BC
:1023D0000190381A01D5019804E04042401E009057
:1023E000781C0190C01B029043E0012F00DA012706
:1023F0000021112F01DD112000E0384601910090ED
:1024000008A911A8FFF7A8FC13990591119A0021BA
:10241000129815920091019721070CD40599B942A1
:1024200001DB019900E00191012904DD159A491EA3
:10243000515C302906D0B84201DA011D05DA0121CC
:10244000029115E00199491EEDE7002805DC00998D
:10245000411800910199091A03E0019A411C914227
:1024600000DD01910099401A401C02900120C00734
:102470000390200706D402990198814202DB0020D4
:10248000C043029000206946C87707AF0121039836
:102490000337C907884224D0022011902B201290C4
:1024A000039800280CDA404203902D20129007E098
:1024B0000A210398FDF71AFE30317F1E0390397010
:1024C0001199481E11900029F2DC03980028EFD1E1
:1024D000791E129808703078202108404530BF1EC0
:1024E000387006A8C01BC01D039010980078002803
:1024F00000D00120019941180298C01709180398CB
:1025000009180498401A401E0490E00306D421469E
:102510001A9B199A049800F05FF8451910980078F2
:10252000002803D01A9A199990476D1CE00324D50E
:1025300021461A9B199A049800F04EF845191CE0A0
:102540000098002807DB00990598884203DD15985C
:10255000405C199901E0199930201A9A9047009827
:102560006D1C401C00900298401E0290002804D16F
:102570001A9A2E20199990476D1C0199481E0190B6
:102580000029DDDC05E038781A9A7F1C19999047FC
:102590006D1C0399481E03900029F4DC21461A9B08
:1025A000199A0498ACE600002D0000002B000000F2
:1025B0002000000000000000F8B5044600251E467B
:1025C0001746880404D405E039462020B0476D1C26
:1025D000641EF9D52846F8BDFFB50446002581B034
:1025E0001E46C80301D5302700E02027880404D503
:1025F00005E038460399B0476D1C641EF9D528469E
:1026000005B0F0BD0A68531C0B60107070470000E5
:10261000044910B5884201D9034810BDFDF7B2FE48
:1026200010BD0000FF0F000000F07F457FB505A141
:102630003AC96E463AC602461021684600F00EF9C5
:1026400004B070BD41542B434950434C4F53450D8A
:102650000A0D0A0010B592B00446442205496846A6
:10266000FDF79BFD22464421684600F0F7F812B0C2
:1026700010BD00004829000870B504460D46084604
:1026800000F0D0F8284600F0B9F82846FFF7E2FF3E
:102690002946204600F05AF82846FFF7C7FF70BDCC
:1026A000FEF75EFCFFF731F9FFF7D8F8FFF7A6F861
:1026B000FFF70CF97D24E4000548FEF749FB2046AE
:1026C000FEF784FB02490348403100F0DFF8F3E7EE
:1026D0001C0000200400002070B50546FDF7EEFE4A
:1026E000044601462846FDF7CDFD7F263F22BF2345
:1026F000FF21F60512061B060906002D0CDA98428A
:1027000002D343008B420CD9904219DD400088422D
:1027100011D915E0044613E0984207D943008B42D3
:1027200004D831462046FDF7ADFDF3E7904207DBC4
:102730004000884204D831462046FDF752FDE9E7C3
:1027400060004008E90FC907084370BD70B5EEB0DE
:102750000D460646024617A16BA8FFF787FA00242C
:102760006BA800E0641C015D0029FBD18C2212499A
:1027700040A8FDF712FD3346224640A96846FFF700
:1027800075FA0024684600E0641C015D0029FBD155
:1027900022460AA163A8FFF769FA2A46202163A806
:1027A00000F05CF82A462146684600F057F86EB003
:1027B00070BD000025640000BC28000841542B4374
:1027C000495053454E443D25640D0A0010B5FFF7AE
:1027D0001FFFFDF7F2FD064A064BFDF75BFDFDF717
:1027E00000FEFFF779FF0449FDF750FD10BD000022
:1027F0009A999999997944400000C8427FB505A1FA
:102800003AC96E463AC602460E21684600F026F8DE
:1028100004B070BD41542B4349504D55583D300DC7
:102820000A00000010B586B00446182205A16846CB
:10283000FDF7B3FC22461521684600F00FF806B0FC
:1028400010BD000041542B43495053534C53495A37
:10285000453D343039360D0A0000000070B514468D
:102860008AB27D25ED0001462B462046FEF75EFF2D
:10287000002801D0012070BD01222B4652020249DE
:102880002046FEF7DBFE70BDDC00002010B50C46D4
:102890004068FFF79BFFFDF77CFD2146FFF7ECFE4C
:1028A00010BD000000000000000001020304060744
:1028B000080900000000010203040000504F5354B7
:1028C000202F506C616E74732F486172647761724F
:1028D000654944312F4C696768744C6576656C2E88
:1028E0006A736F6E20485454502F312E310D0A48B0
:1028F0006F73743A207468656661726D64622E66E7
:1029000069726562617365696F2E636F6D0D0A434D
:102910006F6E74656E742D547970653A20746578A5
:10292000742F706C61696E0D0A436F6E74656E74FE
:102930002D4C656E6774683A2025640D0A0D0A25D2
:10294000640D0A0D0A0D0A0041542B43495053549B
:102950004152543D2253534C222C2270726F6A65AF
:102960006B742D6F63682D70726F6A656B746D6523
:10297000746F6465722E6669726562617365696FF2
:102980002E636F6D222C3434330D0A00AC290008FD
:10299000000000201C000000381D0008C8290008A5
:1029A0001C000020C4060000481D000800000000B4
:1029B0000000000000000000010000000400000012
:0829C0000000000000127A0083
:04000005080000BD32
:00000001FF
